{
  "contractName": "Crowdsale",
  "abi": [
    {
      "constant": true,
      "inputs": [],
      "name": "totalPayments",
      "outputs": [
        {
          "name": "",
          "type": "uint256"
        }
      ],
      "payable": false,
      "stateMutability": "view",
      "type": "function"
    },
    {
      "constant": true,
      "inputs": [],
      "name": "startDate",
      "outputs": [
        {
          "name": "",
          "type": "uint256"
        }
      ],
      "payable": false,
      "stateMutability": "view",
      "type": "function"
    },
    {
      "constant": true,
      "inputs": [],
      "name": "savedBalanceToken",
      "outputs": [
        {
          "name": "",
          "type": "uint256"
        }
      ],
      "payable": false,
      "stateMutability": "view",
      "type": "function"
    },
    {
      "constant": true,
      "inputs": [],
      "name": "minFundingGoal",
      "outputs": [
        {
          "name": "",
          "type": "uint256"
        }
      ],
      "payable": false,
      "stateMutability": "view",
      "type": "function"
    },
    {
      "constant": true,
      "inputs": [],
      "name": "checkRokBounty",
      "outputs": [
        {
          "name": "totalbounty",
          "type": "uint256"
        }
      ],
      "payable": false,
      "stateMutability": "view",
      "type": "function"
    },
    {
      "constant": true,
      "inputs": [],
      "name": "refundPeriodStart",
      "outputs": [
        {
          "name": "",
          "type": "bool"
        }
      ],
      "payable": false,
      "stateMutability": "view",
      "type": "function"
    },
    {
      "constant": true,
      "inputs": [],
      "name": "deadline",
      "outputs": [
        {
          "name": "",
          "type": "uint256"
        }
      ],
      "payable": false,
      "stateMutability": "view",
      "type": "function"
    },
    {
      "constant": false,
      "inputs": [],
      "name": "unpause",
      "outputs": [],
      "payable": false,
      "stateMutability": "nonpayable",
      "type": "function"
    },
    {
      "constant": true,
      "inputs": [],
      "name": "checkRokSold",
      "outputs": [
        {
          "name": "total",
          "type": "uint256"
        }
      ],
      "payable": false,
      "stateMutability": "view",
      "type": "function"
    },
    {
      "constant": false,
      "inputs": [],
      "name": "finalize",
      "outputs": [],
      "payable": false,
      "stateMutability": "nonpayable",
      "type": "function"
    },
    {
      "constant": false,
      "inputs": [],
      "name": "claim",
      "outputs": [],
      "payable": false,
      "stateMutability": "nonpayable",
      "type": "function"
    },
    {
      "constant": true,
      "inputs": [],
      "name": "maxFundingGoal",
      "outputs": [
        {
          "name": "",
          "type": "uint256"
        }
      ],
      "payable": false,
      "stateMutability": "view",
      "type": "function"
    },
    {
      "constant": true,
      "inputs": [],
      "name": "isStarted",
      "outputs": [
        {
          "name": "",
          "type": "bool"
        }
      ],
      "payable": false,
      "stateMutability": "view",
      "type": "function"
    },
    {
      "constant": false,
      "inputs": [],
      "name": "refund",
      "outputs": [],
      "payable": false,
      "stateMutability": "nonpayable",
      "type": "function"
    },
    {
      "constant": true,
      "inputs": [],
      "name": "paused",
      "outputs": [
        {
          "name": "",
          "type": "bool"
        }
      ],
      "payable": false,
      "stateMutability": "view",
      "type": "function"
    },
    {
      "constant": false,
      "inputs": [],
      "name": "withdrawPayments",
      "outputs": [],
      "payable": false,
      "stateMutability": "nonpayable",
      "type": "function"
    },
    {
      "constant": false,
      "inputs": [],
      "name": "payout",
      "outputs": [],
      "payable": false,
      "stateMutability": "nonpayable",
      "type": "function"
    },
    {
      "constant": true,
      "inputs": [],
      "name": "rateETH_ROK",
      "outputs": [
        {
          "name": "",
          "type": "uint256"
        }
      ],
      "payable": false,
      "stateMutability": "view",
      "type": "function"
    },
    {
      "constant": true,
      "inputs": [],
      "name": "savedBalance",
      "outputs": [
        {
          "name": "",
          "type": "uint256"
        }
      ],
      "payable": false,
      "stateMutability": "view",
      "type": "function"
    },
    {
      "constant": false,
      "inputs": [],
      "name": "pause",
      "outputs": [],
      "payable": false,
      "stateMutability": "nonpayable",
      "type": "function"
    },
    {
      "constant": true,
      "inputs": [],
      "name": "team",
      "outputs": [
        {
          "name": "",
          "type": "address"
        }
      ],
      "payable": false,
      "stateMutability": "view",
      "type": "function"
    },
    {
      "constant": true,
      "inputs": [],
      "name": "owner",
      "outputs": [
        {
          "name": "",
          "type": "address"
        }
      ],
      "payable": false,
      "stateMutability": "view",
      "type": "function"
    },
    {
      "constant": true,
      "inputs": [],
      "name": "bounty",
      "outputs": [
        {
          "name": "",
          "type": "address"
        }
      ],
      "payable": false,
      "stateMutability": "view",
      "type": "function"
    },
    {
      "constant": true,
      "inputs": [
        {
          "name": "_contributor",
          "type": "address"
        }
      ],
      "name": "checkEthBalance",
      "outputs": [
        {
          "name": "balance",
          "type": "uint256"
        }
      ],
      "payable": false,
      "stateMutability": "view",
      "type": "function"
    },
    {
      "constant": true,
      "inputs": [],
      "name": "tokenBalance",
      "outputs": [
        {
          "name": "balance",
          "type": "uint256"
        }
      ],
      "payable": false,
      "stateMutability": "view",
      "type": "function"
    },
    {
      "constant": true,
      "inputs": [],
      "name": "minimumPurchase",
      "outputs": [
        {
          "name": "",
          "type": "uint256"
        }
      ],
      "payable": false,
      "stateMutability": "view",
      "type": "function"
    },
    {
      "constant": true,
      "inputs": [],
      "name": "refundPeriodOver",
      "outputs": [
        {
          "name": "",
          "type": "bool"
        }
      ],
      "payable": false,
      "stateMutability": "view",
      "type": "function"
    },
    {
      "constant": true,
      "inputs": [],
      "name": "isComplete",
      "outputs": [
        {
          "name": "",
          "type": "bool"
        }
      ],
      "payable": false,
      "stateMutability": "view",
      "type": "function"
    },
    {
      "constant": true,
      "inputs": [],
      "name": "crowdsaleclosed",
      "outputs": [
        {
          "name": "",
          "type": "bool"
        }
      ],
      "payable": false,
      "stateMutability": "view",
      "type": "function"
    },
    {
      "constant": true,
      "inputs": [],
      "name": "refundeadline",
      "outputs": [
        {
          "name": "",
          "type": "uint256"
        }
      ],
      "payable": false,
      "stateMutability": "view",
      "type": "function"
    },
    {
      "constant": true,
      "inputs": [],
      "name": "checkRokTeam",
      "outputs": [
        {
          "name": "totalteam",
          "type": "uint256"
        }
      ],
      "payable": false,
      "stateMutability": "view",
      "type": "function"
    },
    {
      "constant": false,
      "inputs": [
        {
          "name": "value",
          "type": "uint256"
        }
      ],
      "name": "partialRefund",
      "outputs": [],
      "payable": false,
      "stateMutability": "nonpayable",
      "type": "function"
    },
    {
      "constant": true,
      "inputs": [],
      "name": "rok",
      "outputs": [
        {
          "name": "",
          "type": "address"
        }
      ],
      "payable": false,
      "stateMutability": "view",
      "type": "function"
    },
    {
      "constant": false,
      "inputs": [
        {
          "name": "allowed",
          "type": "address[]"
        }
      ],
      "name": "updateKYClist",
      "outputs": [],
      "payable": false,
      "stateMutability": "nonpayable",
      "type": "function"
    },
    {
      "constant": true,
      "inputs": [
        {
          "name": "",
          "type": "address"
        }
      ],
      "name": "payments",
      "outputs": [
        {
          "name": "",
          "type": "uint256"
        }
      ],
      "payable": false,
      "stateMutability": "view",
      "type": "function"
    },
    {
      "constant": true,
      "inputs": [],
      "name": "escrow",
      "outputs": [
        {
          "name": "",
          "type": "address"
        }
      ],
      "payable": false,
      "stateMutability": "view",
      "type": "function"
    },
    {
      "constant": true,
      "inputs": [],
      "name": "percentOfGoal",
      "outputs": [
        {
          "name": "goalPercent",
          "type": "uint16"
        }
      ],
      "payable": false,
      "stateMutability": "view",
      "type": "function"
    },
    {
      "constant": true,
      "inputs": [],
      "name": "isSuccessful",
      "outputs": [
        {
          "name": "",
          "type": "bool"
        }
      ],
      "payable": false,
      "stateMutability": "view",
      "type": "function"
    },
    {
      "constant": false,
      "inputs": [
        {
          "name": "newOwner",
          "type": "address"
        }
      ],
      "name": "transferOwnership",
      "outputs": [],
      "payable": false,
      "stateMutability": "nonpayable",
      "type": "function"
    },
    {
      "inputs": [
        {
          "name": "_rok",
          "type": "address"
        },
        {
          "name": "_escrow",
          "type": "address"
        }
      ],
      "payable": false,
      "stateMutability": "nonpayable",
      "type": "constructor"
    },
    {
      "payable": true,
      "stateMutability": "payable",
      "type": "fallback"
    },
    {
      "anonymous": false,
      "inputs": [
        {
          "indexed": true,
          "name": "_contributor",
          "type": "address"
        },
        {
          "indexed": true,
          "name": "_value",
          "type": "uint256"
        },
        {
          "indexed": true,
          "name": "_tokens",
          "type": "uint256"
        }
      ],
      "name": "Contribution",
      "type": "event"
    },
    {
      "anonymous": false,
      "inputs": [
        {
          "indexed": true,
          "name": "_receiver",
          "type": "address"
        },
        {
          "indexed": true,
          "name": "_value",
          "type": "uint256"
        },
        {
          "indexed": true,
          "name": "_timestamp",
          "type": "uint256"
        }
      ],
      "name": "PayEther",
      "type": "event"
    },
    {
      "anonymous": false,
      "inputs": [
        {
          "indexed": true,
          "name": "_value",
          "type": "uint256"
        },
        {
          "indexed": true,
          "name": "_timestamp",
          "type": "uint256"
        }
      ],
      "name": "BurnTokens",
      "type": "event"
    },
    {
      "anonymous": false,
      "inputs": [],
      "name": "Pause",
      "type": "event"
    },
    {
      "anonymous": false,
      "inputs": [],
      "name": "Unpause",
      "type": "event"
    }
  ],
  "bytecode": "0x60606040526000805460a060020a60ff02191681556009819055600a55600b805460ff19169055341561003157600080fd5b604051604080611636833981016040528080519190602001805160008054600160a060020a03338116600160a060020a031992831681179093556003805483169093179092556004805496831696821696909617909555600580549190921690851617905550506006805482167350cc6f2d548f7ecc22c9e9f994e4c0f34c7fe8d0179055600780549091167333462171a814d4eda97cf3a112abe218d05c53c21790556103e860085561154c806100ea6000396000f300606060405236156101c65763ffffffff60e060020a6000350416625b4487811461021f5780630b97bc861461024457806321346edd1461025757806325d0b4ef1461026a5780632738154e1461027d57806328c32be61461029057806329dcb0cf146102b75780633f4ba83a146102ca5780634a84fa81146102dd5780634bb278f3146102f05780634e71d92d146103035780635001780b14610316578063544736e614610329578063590e1ae31461033c5780635c975abb1461034f5780636103d70b1461036257806363bd1d4a1461037557806366d76bb214610388578063785105f61461039b5780638456cb59146103ae57806385f2aef2146103c15780638da5cb5b146103f0578063943dfef1146104035780639a9a5cdb146104165780639e1a4d1914610435578063aa2de6c314610448578063ad3bf1f11461045b578063b2fa1c9e1461046e578063b843505014610481578063bf7929a614610494578063c1a9953f146104a7578063d125a7e2146104ba578063d1bf942a146104d0578063da28c81a146104e3578063e2982c2114610532578063e2fdcc1714610551578063ea7f537a14610564578063ec4cd0cf1461058e578063f2fde38b146105a1575b60005460a060020a900460ff16156101dd57600080fd5b60055433600160a060020a039081169116141561021457600160a060020a0330166000908152600c6020526040902034905561021d565b61021d336105c0565b005b341561022a57600080fd5b61023261079d565b60405190815260200160405180910390f35b341561024f57600080fd5b6102326107a3565b341561026257600080fd5b6102326107ab565b341561027557600080fd5b6102326107b1565b341561028857600080fd5b6102326107bf565b341561029b57600080fd5b6102a36107db565b604051901515815260200160405180910390f35b34156102c257600080fd5b6102326107e5565b34156102d557600080fd5b61021d6107ed565b34156102e857600080fd5b61023261086c565b34156102fb57600080fd5b61021d610872565b341561030e57600080fd5b61021d6108c1565b341561032157600080fd5b610232610a82565b341561033457600080fd5b6102a3610a90565b341561034757600080fd5b61021d610a9b565b341561035a57600080fd5b6102a3610b0c565b341561036d57600080fd5b61021d610b1c565b341561038057600080fd5b61021d610bb5565b341561039357600080fd5b610232610d97565b34156103a657600080fd5b610232610d9d565b34156103b957600080fd5b61021d610da3565b34156103cc57600080fd5b6103d4610e27565b604051600160a060020a03909116815260200160405180910390f35b34156103fb57600080fd5b6103d4610e36565b341561040e57600080fd5b6103d4610e45565b341561042157600080fd5b610232600160a060020a0360043516610e54565b341561044057600080fd5b610232610e6f565b341561045357600080fd5b610232610ee9565b341561046657600080fd5b6102a3610ef5565b341561047957600080fd5b6102a3610eff565b341561048c57600080fd5b6102a3610fa4565b341561049f57600080fd5b610232610fad565b34156104b257600080fd5b610232610fb5565b34156104c557600080fd5b61021d600435610fd2565b34156104db57600080fd5b6103d4611040565b34156104ee57600080fd5b61021d600460248135818101908301358060208181020160405190810160405280939291908181526020018383602002808284375094965061104f95505050505050565b341561053d57600080fd5b610232600160a060020a0360043516611102565b341561055c57600080fd5b6103d4611114565b341561056f57600080fd5b610577611123565b60405161ffff909116815260200160405180910390f35b341561059957600080fd5b6102a3611149565b34156105ac57600080fd5b61021d600160a060020a036004351661115d565b6000806105cb610a90565b15156105d657600080fd5b6105de610eff565b156105e857600080fd5b60095469152d02c7e14af680000090610607903463ffffffff6111bc16565b111561060f57fe5b67016345785d8a000034101561062157fe5b600160a060020a0383166000908152600c602052604090205461064a903463ffffffff6111bc16565b600160a060020a0384166000908152600c6020526040902055600954610676903463ffffffff6111bc16565b60095560085461069590610690903463ffffffff6111d216565b6111f6565b6008546106a8903463ffffffff6111d216565b0191506106cd60646106c184605063ffffffff6111d216565b9063ffffffff61125516565b600160a060020a0384166000908152600d60205260409020549091506106f9908263ffffffff6111bc16565b600160a060020a0384166000908152600d6020526040902055600a54610725908363ffffffff6111bc16565b600a55600554600160a060020a03163480156108fc0290604051600060405180830381858888f19350505050151561075c57600080fd5b60055442903490600160a060020a03167f67848d9c2d923afb2c78cd66af34d1ba6abb924a3f9c44e6a03dfae94b2b814a60405160405180910390a4505050565b60025481565b6359f9a93081565b600a5481565b6903cfc82e37e9a740000081565b600a546000906107d690606463ffffffff61125516565b905090565b635a213630421190565b635a21363081565b60005433600160a060020a0390811691161461080857600080fd5b60005460a060020a900460ff16151561082057600080fd5b6000805474ff0000000000000000000000000000000000000000191690557f7805862f689e2f13df9f062ff482ad3ad112aca9e0847911ed832e158c525b3360405160405180910390a1565b600a5490565b60005433600160a060020a0390811691161461088d57600080fd5b610895610a90565b15156108a057600080fd5b6108a8610eff565b156108b257600080fd5b600b805460ff19166001179055565b6108c9610eff565b15156108d457600080fd5b60006108df33610e54565b116108e957600080fd5b6729a2241af62c00006108fb33610e54565b116109ad57600454600160a060020a03338181166000908152600d602052604080822054939094169363a9059cbb939190516020015260405160e060020a63ffffffff8516028152600160a060020a0390921660048301526024820152604401602060405180830381600087803b151561097457600080fd5b6102c65a03f1151561098557600080fd5b50505060405180515050600160a060020a0333166000908152600d6020526040812055610a80565b600160a060020a0333166000908152600e602052604090205460ff1615156001146109d757600080fd5b600454600160a060020a03338181166000908152600d602052604080822054939094169363a9059cbb939190516020015260405160e060020a63ffffffff8516028152600160a060020a0390921660048301526024820152604401602060405180830381600087803b1515610a4b57600080fd5b6102c65a03f11515610a5c57600080fd5b50505060405180515050600160a060020a0333166000908152600d60205260408120555b565b69152d02c7e14af680000081565b6359f9a93042101590565b6000610aa5611149565b15610aaf57600080fd5b610ab76107db565b1515610ac257600080fd5b610aca610ef5565b15610ad457600080fd5b6000610adf33610e54565b11610ae957600080fd5b610af233610e54565b9050610aff33600061126c565b610b093382611288565b50565b60005460a060020a900460ff1681565b33600160a060020a038116600090815260016020526040902054801515610b4257600080fd5b600160a060020a0330163181901015610b5a57600080fd5b600254610b6d908263ffffffff6112e416565b600255600160a060020a0382166000818152600160205260408082209190915582156108fc0290839051600060405180830381858888f193505050501515610bb157fe5b5050565b60005433600160a060020a03908116911614610bd057600080fd5b610bd8611149565b8015610be75750610be7610eff565b15610c8257600454600654600160a060020a039182169163a9059cbb9116610c0d6107bf565b60006040516020015260405160e060020a63ffffffff8516028152600160a060020a0390921660048301526024820152604401602060405180830381600087803b1515610c5957600080fd5b6102c65a03f11515610c6a57600080fd5b5050506040518051905050610c7d6112f6565b610a80565b610c8a610ef5565b15610a8057600554600954600160a060020a039091169080156108fc0290604051600060405180830381858888f193505050501515610cc857600080fd5b600954600554429190600160a060020a03167f67848d9c2d923afb2c78cd66af34d1ba6abb924a3f9c44e6a03dfae94b2b814a60405160405180910390a4600454600654600160a060020a039182169163a9059cbb9116610d276107bf565b60006040516020015260405160e060020a63ffffffff8516028152600160a060020a0390921660048301526024820152604401602060405180830381600087803b1515610d7357600080fd5b6102c65a03f11515610d8457600080fd5b5050506040518051905050610a806112f6565b60085481565b60095481565b60005433600160a060020a03908116911614610dbe57600080fd5b60005460a060020a900460ff1615610dd557600080fd5b6000805474ff0000000000000000000000000000000000000000191660a060020a1790557f6985a02210a168e66602d3235cb6db0e70f92b3ba4d376a33c0f3d9434bff62560405160405180910390a1565b600754600160a060020a031681565b600354600160a060020a031681565b600654600160a060020a031681565b600160a060020a03166000908152600c602052604090205490565b600454600090600160a060020a03166370a0823130836040516020015260405160e060020a63ffffffff8416028152600160a060020a039091166004820152602401602060405180830381600087803b1515610eca57600080fd5b6102c65a03f11515610edb57600080fd5b505050604051805191505090565b67016345785d8a000081565b635a5b3830421190565b600069152d02c7e14af6800000600954101580610f1f5750635a21363042115b80610f8e5750600454600160a060020a03166318160ddd6000604051602001526040518163ffffffff1660e060020a028152600401602060405180830381600087803b1515610f6d57600080fd5b6102c65a03f11515610f7e57600080fd5b50505060405180519050600a5410155b806107d65750600b5460ff161515600114905090565b600b5460ff1681565b635a5b383081565b60006107d660646106c16013600a546111d290919063ffffffff16565b610fda611149565b15610fe457600080fd5b610fec6107db565b1515610ff757600080fd5b610fff610ef5565b1561100957600080fd5b8061101333610e54565b101561101e57600080fd5b610aff3361103b8361102f33610e54565b9063ffffffff6112e416565b61126c565b600454600160a060020a031681565b6000805433600160a060020a0390811691161461106b57600080fd5b5060005b8151811015610bb157600e600083838151811061108857fe5b90602001906020020151600160a060020a0316815260208101919091526040016000205460ff1615156110fa576001600e60008484815181106110c757fe5b90602001906020020151600160a060020a031681526020810191909152604001600020805460ff19169115159190911790555b60010161106f565b60016020526000908152604090205481565b600554600160a060020a031681565b60006107d66903cfc82e37e9a74000006106c160646009546111d290919063ffffffff16565b6009546903cfc82e37e9a740000090101590565b60005433600160a060020a0390811691161461117857600080fd5b600160a060020a038116151561118d57600080fd5b6000805473ffffffffffffffffffffffffffffffffffffffff1916600160a060020a0392909216919091179055565b6000828201838110156111cb57fe5b9392505050565b60008282028315806111ee57508284828115156111eb57fe5b04145b15156111cb57fe5b6000806359feef30635a0586b0428290116112235761121c85600a63ffffffff61125516565b925061124c565b8042111580156112335750814210155b1561124c5761124985601463ffffffff61125516565b92505b50909392505050565b600080828481151561126357fe5b04949350505050565b600160a060020a039091166000908152600c6020526040902055565b600160a060020a0382166000908152600160205260409020546112b1908263ffffffff6111bc16565b600160a060020a0383166000908152600160205260409020556002546112dd908263ffffffff6111bc16565b6002555050565b6000828211156112f057fe5b50900390565b6000611300610fb5565b1161130757fe5b600454600754600160a060020a039182169163a9059cbb9116611328610fb5565b60006040516020015260405160e060020a63ffffffff8516028152600160a060020a0390921660048301526024820152604401602060405180830381600087803b151561137457600080fd5b6102c65a03f1151561138557600080fd5b50505060405180515050600454600160a060020a03166318160ddd6000604051602001526040518163ffffffff1660e060020a028152600401602060405180830381600087803b15156113d757600080fd5b6102c65a03f115156113e857600080fd5b505050604051805190506113fa61086c565b1015610a8057600454600160a060020a03166342966c6861148b61141c61086c565b600454600160a060020a03166318160ddd6000604051602001526040518163ffffffff1660e060020a028152600401602060405180830381600087803b151561146457600080fd5b6102c65a03f1151561147557600080fd5b505050604051805191905063ffffffff6112e416565b60006040516020015260405160e060020a63ffffffff84160281526004810191909152602401602060405180830381600087803b15156114ca57600080fd5b6102c65a03f115156114db57600080fd5b5050506040518051905050426114f261141c61086c565b7ff1337af994b33c56a7ce51266931ae8dedce9d6eb9b3eb127fcf7f006374f74e60405160405180910390a35600a165627a7a723058203b1873f17de26103b307edb8bc89a588c07eb048b122af3916c5283e63be45d80029",
  "source": "pragma solidity ^0.4.17;\n\n\nimport './SafeMath.sol';\nimport './ROKToken.sol';\nimport './Pausable.sol';\nimport './PullPayment.sol';\n\n\n/*\n*  Crowdsale Smart Contract for the Rockchain project\n*  Author: Yosra Helal yosra.helal@rockchain.org\n*  Contributor: Christophe Ozcan christophe.ozcan@crypto4all.com\n*\n*\n*  MultiSig advisors Keys (3/5)\n*\n*  Christophe OZCAN        0x75dcB0Ba77e5f99f8ce6F01338Cb235DFE94260c\n*  Jeff GUILBAULT          0x94ddC32c61BC9a799CdDea87e6a1D1316198b0Fa\n*  Mark HAHNEL             0xFaE39043B8698CaA4F1417659B00737fa19b8ECC\n*  Sébastien COLLIGNON     0xd70280108EaF321E100276F6D1b105Ee088CB016\n*  Sébastien JEHAN         0xE4b0A48D3b1adA17000Fd080cd42DB3e8231752c\n*\n*\n*/\n\ncontract Crowdsale is Pausable, PullPayment {\n    using SafeMath for uint256;\n\n    address public owner;\n    ROKToken public rok;\n    address public escrow;                                                             // Address of Escrow Provider Wallet\n    address public bounty ;                                                            // Address dedicated for bounty services\n    address public team;                                                               // Adress for ROK token allocated to the team\n    uint256 public rateETH_ROK;                                                        // Rate Ether per ROK token\n    uint256 public constant minimumPurchase = 0.1 ether;                               // Minimum purchase size of incoming ETH\n    uint256 public constant maxFundingGoal = 100000 ether;                             // Maximum goal in Ether raised\n    uint256 public constant minFundingGoal = 18000 ether;                              // Minimum funding goal in Ether raised\n    uint256 public constant startDate = 1509534000;                                    // epoch timestamp representing the start date (1st november 2017 11:00 gmt)\n    uint256 public constant deadline = 1512126000;                                     // epoch timestamp representing the end date (1st december 2017 11:00 gmt)\n    uint256 public constant refundeadline = 1515927600;                                // epoch timestamp representing the end date of refund period (14th january 2018 11:00 gmt)\n    uint256 public savedBalance = 0;                                                   // Total amount raised in ETH\n    uint256 public savedBalanceToken = 0;                                              // Total ROK Token allocated\n    bool public crowdsaleclosed = false;                                               // To finalize crowdsale\n    mapping (address => uint256) balances;                                             // Balances in incoming Ether\n    mapping (address => uint256) balancesRokToken;                                     // Balances in ROK\n    mapping (address => bool) KYClist;\n\n    // Events to record new contributions\n    event Contribution(address indexed _contributor, uint256 indexed _value, uint256 indexed _tokens);\n\n    // Event to record each time Ether is paid out\n    event PayEther(\n    address indexed _receiver,\n    uint256 indexed _value,\n    uint256 indexed _timestamp\n    );\n\n    // Event to record when tokens are burned.\n    event BurnTokens(\n    uint256 indexed _value,\n    uint256 indexed _timestamp\n    );\n\n    // Initialization\n    function Crowdsale(address _rok, address _escrow){\n        owner = msg.sender;\n        // add address of the specific contract\n        rok = ROKToken(_rok);\n        escrow = _escrow;\n        bounty = 0x50Cc6F2D548F7ecc22c9e9F994E4C0F34c7fE8d0;\n        team = 0x33462171A814d4eDa97Cf3a112abE218D05c53C2;\n        rateETH_ROK = 1000;\n    }\n\n\n    // Default Function, delegates to contribute function (for ease of use)\n    // WARNING: Not compatible with smart contract invocation, will exceed gas stipend!\n    // Only use from external accounts\n    function() payable whenNotPaused{\n        if (msg.sender == escrow){\n            balances[this] = msg.value;\n        }\n        else{\n            contribute(msg.sender);\n        }\n    }\n\n    // Contribute Function, accepts incoming payments and tracks balances for each contributors\n    function contribute(address contributor) internal{\n        require(isStarted());\n        require(!isComplete());\n        assert((savedBalance.add(msg.value)) <= maxFundingGoal);\n        assert(msg.value >= minimumPurchase);\n        balances[contributor] = balances[contributor].add(msg.value);\n        savedBalance = savedBalance.add(msg.value);\n        uint256 Roktoken = rateETH_ROK.mul(msg.value) + getBonus(rateETH_ROK.mul(msg.value));\n        uint256 RokToSend = (Roktoken.mul(80)).div(100);\n        balancesRokToken[contributor] = balancesRokToken[contributor].add(RokToSend);\n        savedBalanceToken = savedBalanceToken.add(Roktoken);\n        escrow.transfer(msg.value);\n        PayEther(escrow, msg.value, now);\n    }\n\n\n    // Function to check if crowdsale has started yet\n    function isStarted() constant returns (bool) {\n        return now >= startDate;\n    }\n\n    // Function to check if crowdsale is complete (\n    function isComplete() constant returns (bool) {\n        return (savedBalance >= maxFundingGoal) || (now > deadline) || (savedBalanceToken >= rok.totalSupply()) || (crowdsaleclosed == true);\n    }\n\n    // Function to view current token balance of the crowdsale contract\n    function tokenBalance() constant returns (uint256 balance) {\n        return rok.balanceOf(address(this));\n    }\n\n    // Function to check if crowdsale has been successful (has incoming contribution balance met, or exceeded the minimum goal?)\n    function isSuccessful() constant returns (bool) {\n        return (savedBalance >= minFundingGoal);\n    }\n\n    // Function to check the Ether balance of a contributor\n    function checkEthBalance(address _contributor) constant returns (uint256 balance) {\n        return balances[_contributor];\n    }\n\n    // Function to check the current Tokens Sold in the ICO\n    function checkRokSold() constant returns (uint256 total) {\n        return (savedBalanceToken);\n        // Function to check the current Tokens Sold in the ICO\n    }\n\n    // Function to check the current Tokens affected to the team\n    function checkRokTeam() constant returns (uint256 totalteam) {\n        return (savedBalanceToken.mul(19).div(100));\n        // Function to check the current Tokens affected to the team\n    }\n\n    // Function to check the current Tokens affected to bounty\n    function checkRokBounty() constant returns (uint256 totalbounty) {\n        return (savedBalanceToken.div(100));\n    }\n\n    // Function to check the refund period is over\n    function refundPeriodOver() constant returns (bool){\n        return (now > refundeadline);\n    }\n\n    // Function to check the refund period is over\n    function refundPeriodStart() constant returns (bool){\n        return (now > deadline);\n    }\n\n    // function to check percentage of goal achieved\n    function percentOfGoal() constant returns (uint16 goalPercent) {\n        return uint16((savedBalance.mul(100)).div(minFundingGoal));\n    }\n\n    // Calcul the ROK bonus according to the investment period\n    function getBonus(uint256 amount) internal constant returns (uint256) {\n        uint bonus = 0;\n        //   5 November 2017 11:00:00 GMT\n        uint firstbonusdate = 1509879600;\n        //  10 November 2017 11:00:00 GMT\n        uint secondbonusdate = 1510311600;\n\n        //  if investment date is on the 10% bonus period then return bonus\n        if (now <= firstbonusdate) {bonus = amount.div(10);}\n        //  else if investment date is on the 5% bonus period then return bonus\n        else if (now <= secondbonusdate && now >= firstbonusdate) {bonus = amount.div(20);}\n        //  return amount without bonus\n        return bonus;\n    }\n\n    // Function to set the balance of a sender\n    function setBalance(address sender,uint256 value) internal{\n        balances[sender] = value;\n    }\n\n    // Only owner will finalize the crowdsale\n    function finalize() onlyOwner {\n        require(isStarted());\n        require(!isComplete());\n        crowdsaleclosed = true;\n    }\n\n    // Function to pay out\n    function payout() onlyOwner {\n        if (isSuccessful() && isComplete()) {\n            rok.transfer(bounty, checkRokBounty());\n            payTeam();\n        }\n        else {\n            if (refundPeriodOver()) {\n                escrow.transfer(savedBalance);\n                PayEther(escrow, savedBalance, now);\n                rok.transfer(bounty, checkRokBounty());\n                payTeam();\n            }\n        }\n    }\n\n    //Function to pay Team\n    function payTeam() internal {\n        assert(checkRokTeam() > 0);\n        rok.transfer(team, checkRokTeam());\n        if (checkRokSold() < rok.totalSupply()) {\n            // burn the rest of ROK\n            rok.burn(rok.totalSupply().sub(checkRokSold()));\n            //Log burn of tokens\n            BurnTokens(rok.totalSupply().sub(checkRokSold()), now);\n        }\n    }\n\n    //Function to update KYC list\n    function updateKYClist(address[] allowed) onlyOwner{\n        for (uint i = 0; i < allowed.length; i++) {\n            if (KYClist[allowed[i]] == false) {\n                KYClist[allowed[i]] = true;\n            }\n        }\n    }\n\n    //Function to claim ROK tokens\n    function claim() public{\n        require(isComplete());\n        require(checkEthBalance(msg.sender) > 0);\n        if(checkEthBalance(msg.sender) <= (3 ether)){\n            rok.transfer(msg.sender,balancesRokToken[msg.sender]);\n            balancesRokToken[msg.sender] = 0;\n        }\n        else{\n            require(KYClist[msg.sender] == true);\n            rok.transfer(msg.sender,balancesRokToken[msg.sender]);\n            balancesRokToken[msg.sender] = 0;\n        }\n    }\n\n    /* When MIN_CAP is not reach the smart contract will be credited to make refund possible by backers\n     * 1) backer call the \"refund\" function of the Crowdsale contract with the same amount of ETH sent\n     * 2) backer call the \"withdrawPayments\" function of the Crowdsale contract to get a refund in ETH\n     */\n    function refund() public {\n        require(!isSuccessful());\n        require(refundPeriodStart());\n        require(!refundPeriodOver());\n        require(checkEthBalance(msg.sender) > 0);\n        uint ETHToSend = checkEthBalance(msg.sender);\n        setBalance(msg.sender,0);\n        asyncSend(msg.sender, ETHToSend);\n    }\n\n    /* When MIN_CAP is not reach the smart contract will be credited to make refund possible by backers\n     * 1) backer call the \"partialRefund\" function of the Crowdsale contract with the partial amount of ETH to be refunded (value in WEI)\n     * 2) backer call the \"withdrawPayments\" function of the Crowdsale contract to get a refund in ETH\n     */\n    function partialRefund(uint256 value) public {\n        require(!isSuccessful());\n        require(refundPeriodStart());\n        require(!refundPeriodOver());\n        require(checkEthBalance(msg.sender) >= value);\n        setBalance(msg.sender,checkEthBalance(msg.sender).sub(value));\n        asyncSend(msg.sender, value);\n    }\n\n}",
  "sourcePath": "/home/yosra/workspace/finaltoken_gitSync/contracts/Crowdsale.sol",
  "schemaVersion": "1.0.0",
  "updatedAt": "2017-10-27T12:33:45.180Z"
}