{
  "contractName": "Migrations",
  "abi": [
    {
      "constant": false,
      "inputs": [
        {
          "name": "newAddress",
          "type": "address"
        }
      ],
      "name": "upgrade",
      "outputs": [],
      "payable": false,
      "stateMutability": "nonpayable",
      "type": "function"
    },
    {
      "constant": true,
      "inputs": [],
      "name": "owner",
      "outputs": [
        {
          "name": "",
          "type": "address"
        }
      ],
      "payable": false,
      "stateMutability": "view",
      "type": "function"
    },
    {
      "constant": false,
      "inputs": [
        {
          "name": "newOwner",
          "type": "address"
        }
      ],
      "name": "transferOwnership",
      "outputs": [],
      "payable": false,
      "stateMutability": "nonpayable",
      "type": "function"
    },
    {
      "constant": true,
      "inputs": [],
      "name": "lastCompletedMigration",
      "outputs": [
        {
          "name": "",
          "type": "uint256"
        }
      ],
      "payable": false,
      "stateMutability": "view",
      "type": "function"
    },
    {
      "constant": false,
      "inputs": [
        {
          "name": "completed",
          "type": "uint256"
        }
      ],
      "name": "setCompleted",
      "outputs": [],
      "payable": false,
      "stateMutability": "nonpayable",
      "type": "function"
    }
  ],
  "bytecode": "0x606060405260008054600160a060020a033316600160a060020a031990911617905561026a806100306000396000f300606060405263ffffffff7c01000000000000000000000000000000000000000000000000000000006000350416630900f01081146100685780638da5cb5b14610089578063f2fde38b146100b8578063fbdbad3c146100d7578063fdacd576146100fc57600080fd5b341561007357600080fd5b610087600160a060020a0360043516610112565b005b341561009457600080fd5b61009c6101aa565b604051600160a060020a03909116815260200160405180910390f35b34156100c357600080fd5b610087600160a060020a03600435166101b9565b34156100e257600080fd5b6100ea610218565b60405190815260200160405180910390f35b341561010757600080fd5b61008760043561021e565b6000805433600160a060020a0390811691161461012e57600080fd5b81905080600160a060020a031663fdacd5766001546040517c010000000000000000000000000000000000000000000000000000000063ffffffff84160281526004810191909152602401600060405180830381600087803b151561019257600080fd5b6102c65a03f115156101a357600080fd5b5050505050565b600054600160a060020a031681565b60005433600160a060020a039081169116146101d457600080fd5b600160a060020a03811615156101e957600080fd5b6000805473ffffffffffffffffffffffffffffffffffffffff1916600160a060020a0392909216919091179055565b60015481565b60005433600160a060020a0390811691161461023957600080fd5b6001555600a165627a7a72305820faf76f10af34d0fecc234f6e2349af6bc15fb60d55aad7821a8afb710d3cc2880029",
  "source": "pragma solidity ^0.4.17;\n\n\nimport './Ownable.sol';\n\n/**\n * @title Migrations\n * @dev This is a truffle contract, needed for truffle integration, not meant for use by Zeppelin users.\n */\ncontract Migrations is Ownable {\n    uint256 public lastCompletedMigration;\n\n    function setCompleted(uint256 completed) onlyOwner public {\n        lastCompletedMigration = completed;\n    }\n\n    function upgrade(address newAddress) onlyOwner public {\n        Migrations upgraded = Migrations(newAddress);\n        upgraded.setCompleted(lastCompletedMigration);\n    }\n}",
  "sourcePath": "/home/yosra/workspace/finaltoken_gitSync/contracts/Migrations.sol",
  "schemaVersion": "1.0.0",
  "updatedAt": "2017-10-27T12:33:45.182Z"
}