{
  "contractName": "MultiSigWallet",
  "abi": [
    {
      "constant": true,
      "inputs": [
        {
          "name": "",
          "type": "uint256"
        }
      ],
      "name": "owners",
      "outputs": [
        {
          "name": "",
          "type": "address"
        }
      ],
      "payable": false,
      "stateMutability": "view",
      "type": "function"
    },
    {
      "constant": false,
      "inputs": [
        {
          "name": "owner",
          "type": "address"
        }
      ],
      "name": "removeOwner",
      "outputs": [],
      "payable": false,
      "stateMutability": "nonpayable",
      "type": "function"
    },
    {
      "constant": false,
      "inputs": [
        {
          "name": "transactionId",
          "type": "uint256"
        }
      ],
      "name": "revokeConfirmation",
      "outputs": [],
      "payable": false,
      "stateMutability": "nonpayable",
      "type": "function"
    },
    {
      "constant": true,
      "inputs": [
        {
          "name": "",
          "type": "address"
        }
      ],
      "name": "isOwner",
      "outputs": [
        {
          "name": "",
          "type": "bool"
        }
      ],
      "payable": false,
      "stateMutability": "view",
      "type": "function"
    },
    {
      "constant": true,
      "inputs": [
        {
          "name": "",
          "type": "uint256"
        },
        {
          "name": "",
          "type": "address"
        }
      ],
      "name": "confirmations",
      "outputs": [
        {
          "name": "",
          "type": "bool"
        }
      ],
      "payable": false,
      "stateMutability": "view",
      "type": "function"
    },
    {
      "constant": true,
      "inputs": [],
      "name": "isMultiSigWallet",
      "outputs": [
        {
          "name": "",
          "type": "bool"
        }
      ],
      "payable": false,
      "stateMutability": "view",
      "type": "function"
    },
    {
      "constant": true,
      "inputs": [
        {
          "name": "pending",
          "type": "bool"
        },
        {
          "name": "executed",
          "type": "bool"
        }
      ],
      "name": "getTransactionCount",
      "outputs": [
        {
          "name": "count",
          "type": "uint256"
        }
      ],
      "payable": false,
      "stateMutability": "view",
      "type": "function"
    },
    {
      "constant": false,
      "inputs": [
        {
          "name": "owner",
          "type": "address"
        }
      ],
      "name": "addOwner",
      "outputs": [],
      "payable": false,
      "stateMutability": "nonpayable",
      "type": "function"
    },
    {
      "constant": true,
      "inputs": [
        {
          "name": "transactionId",
          "type": "uint256"
        }
      ],
      "name": "isConfirmed",
      "outputs": [
        {
          "name": "",
          "type": "bool"
        }
      ],
      "payable": false,
      "stateMutability": "view",
      "type": "function"
    },
    {
      "constant": false,
      "inputs": [
        {
          "name": "owner",
          "type": "address"
        },
        {
          "name": "newOwner",
          "type": "address"
        },
        {
          "name": "index",
          "type": "uint256"
        }
      ],
      "name": "replaceOwnerIndexed",
      "outputs": [],
      "payable": false,
      "stateMutability": "nonpayable",
      "type": "function"
    },
    {
      "constant": true,
      "inputs": [
        {
          "name": "transactionId",
          "type": "uint256"
        }
      ],
      "name": "getConfirmationCount",
      "outputs": [
        {
          "name": "count",
          "type": "uint256"
        }
      ],
      "payable": false,
      "stateMutability": "view",
      "type": "function"
    },
    {
      "constant": true,
      "inputs": [
        {
          "name": "",
          "type": "uint256"
        }
      ],
      "name": "transactions",
      "outputs": [
        {
          "name": "destination",
          "type": "address"
        },
        {
          "name": "value",
          "type": "uint256"
        },
        {
          "name": "data",
          "type": "bytes"
        },
        {
          "name": "executed",
          "type": "bool"
        }
      ],
      "payable": false,
      "stateMutability": "view",
      "type": "function"
    },
    {
      "constant": true,
      "inputs": [],
      "name": "getOwners",
      "outputs": [
        {
          "name": "",
          "type": "address[]"
        }
      ],
      "payable": false,
      "stateMutability": "view",
      "type": "function"
    },
    {
      "constant": true,
      "inputs": [
        {
          "name": "from",
          "type": "uint256"
        },
        {
          "name": "to",
          "type": "uint256"
        },
        {
          "name": "pending",
          "type": "bool"
        },
        {
          "name": "executed",
          "type": "bool"
        }
      ],
      "name": "getTransactionIds",
      "outputs": [
        {
          "name": "_transactionIds",
          "type": "uint256[]"
        }
      ],
      "payable": false,
      "stateMutability": "view",
      "type": "function"
    },
    {
      "constant": true,
      "inputs": [
        {
          "name": "transactionId",
          "type": "uint256"
        }
      ],
      "name": "getConfirmations",
      "outputs": [
        {
          "name": "_confirmations",
          "type": "address[]"
        }
      ],
      "payable": false,
      "stateMutability": "view",
      "type": "function"
    },
    {
      "constant": true,
      "inputs": [],
      "name": "transactionCount",
      "outputs": [
        {
          "name": "",
          "type": "uint256"
        }
      ],
      "payable": false,
      "stateMutability": "view",
      "type": "function"
    },
    {
      "constant": false,
      "inputs": [
        {
          "name": "_required",
          "type": "uint256"
        }
      ],
      "name": "changeRequirement",
      "outputs": [],
      "payable": false,
      "stateMutability": "nonpayable",
      "type": "function"
    },
    {
      "constant": false,
      "inputs": [
        {
          "name": "transactionId",
          "type": "uint256"
        }
      ],
      "name": "confirmTransaction",
      "outputs": [],
      "payable": false,
      "stateMutability": "nonpayable",
      "type": "function"
    },
    {
      "constant": false,
      "inputs": [
        {
          "name": "destination",
          "type": "address"
        },
        {
          "name": "value",
          "type": "uint256"
        },
        {
          "name": "data",
          "type": "bytes"
        }
      ],
      "name": "submitTransaction",
      "outputs": [
        {
          "name": "transactionId",
          "type": "uint256"
        }
      ],
      "payable": false,
      "stateMutability": "nonpayable",
      "type": "function"
    },
    {
      "constant": true,
      "inputs": [],
      "name": "MAX_OWNER_COUNT",
      "outputs": [
        {
          "name": "",
          "type": "uint256"
        }
      ],
      "payable": false,
      "stateMutability": "view",
      "type": "function"
    },
    {
      "constant": true,
      "inputs": [],
      "name": "required",
      "outputs": [
        {
          "name": "",
          "type": "uint256"
        }
      ],
      "payable": false,
      "stateMutability": "view",
      "type": "function"
    },
    {
      "inputs": [
        {
          "name": "_owners",
          "type": "address[]"
        },
        {
          "name": "_required",
          "type": "uint256"
        }
      ],
      "payable": false,
      "stateMutability": "nonpayable",
      "type": "constructor"
    },
    {
      "payable": true,
      "stateMutability": "payable",
      "type": "fallback"
    },
    {
      "anonymous": false,
      "inputs": [
        {
          "indexed": true,
          "name": "sender",
          "type": "address"
        },
        {
          "indexed": true,
          "name": "transactionId",
          "type": "uint256"
        }
      ],
      "name": "Confirmation",
      "type": "event"
    },
    {
      "anonymous": false,
      "inputs": [
        {
          "indexed": true,
          "name": "sender",
          "type": "address"
        },
        {
          "indexed": true,
          "name": "transactionId",
          "type": "uint256"
        }
      ],
      "name": "Revocation",
      "type": "event"
    },
    {
      "anonymous": false,
      "inputs": [
        {
          "indexed": true,
          "name": "transactionId",
          "type": "uint256"
        }
      ],
      "name": "Submission",
      "type": "event"
    },
    {
      "anonymous": false,
      "inputs": [
        {
          "indexed": true,
          "name": "transactionId",
          "type": "uint256"
        }
      ],
      "name": "Execution",
      "type": "event"
    },
    {
      "anonymous": false,
      "inputs": [
        {
          "indexed": true,
          "name": "transactionId",
          "type": "uint256"
        }
      ],
      "name": "ExecutionFailure",
      "type": "event"
    },
    {
      "anonymous": false,
      "inputs": [
        {
          "indexed": true,
          "name": "sender",
          "type": "address"
        },
        {
          "indexed": false,
          "name": "value",
          "type": "uint256"
        }
      ],
      "name": "Deposit",
      "type": "event"
    },
    {
      "anonymous": false,
      "inputs": [
        {
          "indexed": true,
          "name": "owner",
          "type": "address"
        }
      ],
      "name": "OwnerAddition",
      "type": "event"
    },
    {
      "anonymous": false,
      "inputs": [
        {
          "indexed": true,
          "name": "owner",
          "type": "address"
        }
      ],
      "name": "OwnerRemoval",
      "type": "event"
    },
    {
      "anonymous": false,
      "inputs": [
        {
          "indexed": false,
          "name": "required",
          "type": "uint256"
        }
      ],
      "name": "RequirementChange",
      "type": "event"
    }
  ],
  "bytecode": "0x60606040526000805460ff1916905534156200001a57600080fd5b60405162001648380380620016488339810160405280805182019190602001805191506000905082518260328211156200005357600080fd5b818111156200006157600080fd5b8015156200006e57600080fd5b8115156200007b57600080fd5b600092505b84518310156200014a57600360008685815181106200009b57fe5b90602001906020020151600160a060020a0316815260208101919091526040016000205460ff1680620000ec5750848381518110620000d657fe5b90602001906020020151600160a060020a031615155b1515620000f857600080fd5b6001600360008786815181106200010b57fe5b90602001906020020151600160a060020a031681526020810191909152604001600020805460ff19169115159190911790556001929092019162000080565b6000805460ff1916600117905560048580516200016c9291602001906200017e565b50505060059190915550620002149050565b828054828255906000526020600020908101928215620001d8579160200282015b82811115620001d85782518254600160a060020a031916600160a060020a0391909116178255602092909201916001909101906200019f565b50620001e6929150620001ea565b5090565b6200021191905b80821115620001e6578054600160a060020a0319168155600101620001f1565b90565b61142480620002246000396000f3006060604052361561011a5763ffffffff7c0100000000000000000000000000000000000000000000000000000000600035041663025e7c278114610163578063173825d91461019557806320ea8d86146101b45780632f54bf6e146101ca5780633411c81c146101fd5780634c3a6ae01461021f57806354741525146102325780637065cb4814610261578063784547a7146102805780638a88c4fe146102965780638b51d13f146102be5780639ace38c2146102d4578063a0e67e2b14610393578063a8abe69a146103f9578063b5dc40c31461041c578063b77bf60014610432578063ba51a6df14610445578063c01a8c841461045b578063c642747414610471578063d74f8edd146104d6578063dc8452cd146104e9575b60003411156101615733600160a060020a03167fe1fffcc4923d04b559f4d29a8bfc6cda04eb5b0d3c460751c2402c5c5cc9109c3460405190815260200160405180910390a25b005b341561016e57600080fd5b6101796004356104fc565b604051600160a060020a03909116815260200160405180910390f35b34156101a057600080fd5b610161600160a060020a0360043516610524565b34156101bf57600080fd5b6101616004356106b9565b34156101d557600080fd5b6101e9600160a060020a0360043516610797565b604051901515815260200160405180910390f35b341561020857600080fd5b6101e9600435600160a060020a03602435166107ac565b341561022a57600080fd5b6101e96107cc565b341561023d57600080fd5b61024f600435151560243515156107d5565b60405190815260200160405180910390f35b341561026c57600080fd5b610161600160a060020a0360043516610841565b341561028b57600080fd5b6101e960043561097e565b34156102a157600080fd5b610161600160a060020a0360043581169060243516604435610a02565b34156102c957600080fd5b61024f600435610b87565b34156102df57600080fd5b6102ea600435610bf6565b604051600160a060020a03851681526020810184905281151560608201526080604082018181528454600260001961010060018416150201909116049183018290529060a0830190859080156103815780601f1061035657610100808354040283529160200191610381565b820191906000526020600020905b81548152906001019060200180831161036457829003601f168201915b50509550505050505060405180910390f35b341561039e57600080fd5b6103a6610c2a565b60405160208082528190810183818151815260200191508051906020019060200280838360005b838110156103e55780820151838201526020016103cd565b505050509050019250505060405180910390f35b341561040457600080fd5b6103a660043560243560443515156064351515610c93565b341561042757600080fd5b6103a6600435610dbb565b341561043d57600080fd5b61024f610f1f565b341561045057600080fd5b610161600435610f25565b341561046657600080fd5b610161600435610fb9565b341561047c57600080fd5b61024f60048035600160a060020a03169060248035919060649060443590810190830135806020601f820181900481020160405190810160405281815292919060208401838380828437509496506110a695505050505050565b34156104e157600080fd5b61024f6110c5565b34156104f457600080fd5b61024f6110ca565b600480548290811061050a57fe5b600091825260209091200154600160a060020a0316905081565b600030600160a060020a031633600160a060020a031614151561054657600080fd5b600160a060020a038216600090815260036020526040902054829060ff16151561056f57600080fd5b600160a060020a0383166000908152600360205260408120805460ff1916905591505b600454600019018210156106525782600160a060020a03166004838154811015156105b957fe5b600091825260209091200154600160a060020a03161415610647576004805460001981019081106105e657fe5b60009182526020909120015460048054600160a060020a03909216918490811061060c57fe5b6000918252602090912001805473ffffffffffffffffffffffffffffffffffffffff1916600160a060020a0392909216919091179055610652565b600190910190610592565b600480546000190190610665908261132a565b50600454600554111561067e5760045461067e90610f25565b82600160a060020a03167f8001553a916ef2f495d26a907cc54d96ed840d7bda71e73194bf5a9df7a76b9060405160405180910390a2505050565b33600160a060020a03811660009081526003602052604090205460ff1615156106e157600080fd5b600082815260026020908152604080832033600160a060020a038116855292529091205483919060ff16151561071657600080fd5b600084815260016020526040902060030154849060ff161561073757600080fd5b6000858152600260209081526040808320600160a060020a033316808552925291829020805460ff1916905586917ff6a317157440607f36269043eb55f1287a5a19ba2216afeab88cd46cbcfb88e9905160405180910390a35050505050565b60036020526000908152604090205460ff1681565b600260209081526000928352604080842090915290825290205460ff1681565b60005460ff1681565b6000805b60065481101561083a57838015610802575060008181526001602052604090206003015460ff16155b806108265750828015610826575060008181526001602052604090206003015460ff165b15610832576001820191505b6001016107d9565b5092915050565b30600160a060020a031633600160a060020a031614151561086157600080fd5b600160a060020a038116600090815260036020526040902054819060ff161561088957600080fd5b81600160a060020a038116151561089f57600080fd5b60045460055460019091019060328211156108b957600080fd5b818111156108c657600080fd5b8015156108d257600080fd5b8115156108de57600080fd5b600160a060020a0385166000908152600360205260409020805460ff191660019081179091556004805490918101610916838261132a565b506000918252602090912001805473ffffffffffffffffffffffffffffffffffffffff1916600160a060020a0387169081179091557ff39e6e1eb0edcf53c221607b54b00cd28f3196fed0a24994dc308b8f611b682d60405160405180910390a25050505050565b600080805b6004548110156109fb57600084815260026020526040812060048054919291849081106109ac57fe5b6000918252602080832090910154600160a060020a0316835282019290925260400190205460ff16156109e0576001820191505b6005548214156109f357600192506109fb565b600101610983565b5050919050565b30600160a060020a031633600160a060020a0316141515610a2257600080fd5b600160a060020a038316600090815260036020526040902054839060ff161515610a4b57600080fd5b600160a060020a038316600090815260036020526040902054839060ff1615610a7357600080fd5b84600160a060020a0316600484815481101515610a8c57fe5b600091825260209091200154600160a060020a031614610aab57600080fd5b83600484815481101515610abb57fe5b6000918252602080832091909101805473ffffffffffffffffffffffffffffffffffffffff1916600160a060020a0394851617905587831680835260039091526040808320805460ff1990811690915593881683529182902080549093166001179092557f8001553a916ef2f495d26a907cc54d96ed840d7bda71e73194bf5a9df7a76b90905160405180910390a283600160a060020a03167ff39e6e1eb0edcf53c221607b54b00cd28f3196fed0a24994dc308b8f611b682d60405160405180910390a25050505050565b6000805b600454811015610bf05760008381526002602052604081206004805491929184908110610bb457fe5b6000918252602080832090910154600160a060020a0316835282019290925260400190205460ff1615610be8576001820191505b600101610b8b565b50919050565b60016020819052600091825260409091208054918101546003820154600160a060020a039093169290916002019060ff1684565b610c3261134e565b6004805480602002602001604051908101604052809291908181526020018280548015610c8857602002820191906000526020600020905b8154600160a060020a03168152600190910190602001808311610c6a575b505050505090505b90565b610c9b61134e565b610ca361134e565b600080600654604051805910610cb65750595b9080825280602002602001820160405250925060009150600090505b600654811015610d4b57858015610cfb575060008181526001602052604090206003015460ff16155b80610d1f5750848015610d1f575060008181526001602052604090206003015460ff165b15610d435780838381518110610d3157fe5b60209081029091010152600191909101905b600101610cd2565b878703604051805910610d5b5750595b908082528060200260200182016040525093508790505b86811015610db057828181518110610d8657fe5b906020019060200201518489830381518110610d9e57fe5b60209081029091010152600101610d72565b505050949350505050565b610dc361134e565b610dcb61134e565b6004546000908190604051805910610de05750595b9080825280602002602001820160405250925060009150600090505b600454811015610ea85760008581526002602052604081206004805491929184908110610e2557fe5b6000918252602080832090910154600160a060020a0316835282019290925260400190205460ff1615610ea0576004805482908110610e6057fe5b600091825260209091200154600160a060020a0316838381518110610e8157fe5b600160a060020a03909216602092830290910190910152600191909101905b600101610dfc565b81604051805910610eb65750595b90808252806020026020018201604052509350600090505b81811015610f1757828181518110610ee257fe5b90602001906020020151848281518110610ef857fe5b600160a060020a03909216602092830290910190910152600101610ece565b505050919050565b60065481565b30600160a060020a031633600160a060020a0316141515610f4557600080fd5b600454816032821115610f5757600080fd5b81811115610f6457600080fd5b801515610f7057600080fd5b811515610f7c57600080fd5b60058390557fa3f1ee9126a074d9326c682f561767f710e927faa811f7a99829d49dc421797a8360405190815260200160405180910390a1505050565b33600160a060020a03811660009081526003602052604090205460ff161515610fe157600080fd5b6000828152600160205260409020548290600160a060020a0316151561100657600080fd5b600083815260026020908152604080832033600160a060020a038116855292529091205484919060ff161561103a57600080fd5b6000858152600260209081526040808320600160a060020a033316808552925291829020805460ff1916600117905586917f4a504a94899432a9846e1aa406dceb1bcfd538bb839071d49d1e5e23f5be30ef905160405180910390a361109f856110d0565b5050505050565b60006110b384848461122c565b90506110be81610fb9565b9392505050565b603281565b60055481565b600081815260016020526040812060030154829060ff16156110f157600080fd5b6110fa8361097e565b156112275760008381526001602081905260409182902060038101805460ff191683179055805491810154909450600160a060020a0390911691600285019051808280546001816001161561010002031660029004801561119c5780601f106111715761010080835404028352916020019161119c565b820191906000526020600020905b81548152906001019060200180831161117f57829003601f168201915b505091505060006040518083038185876187965a03f192505050156111ed57827f33e13ecb54c3076d8e8bb8c2881800a4d972b792045ffae98fdf46df365fed7560405160405180910390a2611227565b827f526441bb6c1aba3c9a4a6ca1d6545da9c2333c8c48343ef398eb858d72b7923660405160405180910390a260038201805460ff191690555b505050565b600083600160a060020a038116151561124457600080fd5b600654915060806040519081016040908152600160a060020a038716825260208083018790528183018690526000606084018190528581526001909152208151815473ffffffffffffffffffffffffffffffffffffffff1916600160a060020a0391909116178155602082015181600101556040820151816002019080516112d0929160200190611360565b506060820151600391909101805460ff191691151591909117905550600680546001019055817fc0ba8fe4b176c1714197d43b9cc6bcf797a4a7461c5fe8d0ef6e184ae7601e5160405160405180910390a2509392505050565b815481835581811511611227576000838152602090206112279181019083016113de565b60206040519081016040526000815290565b828054600181600116156101000203166002900490600052602060002090601f016020900481019282601f106113a157805160ff19168380011785556113ce565b828001600101855582156113ce579182015b828111156113ce5782518255916020019190600101906113b3565b506113da9291506113de565b5090565b610c9091905b808211156113da57600081556001016113e45600a165627a7a72305820413feb8ba21b8abcb874ea2f2e1060a05f8695b0d91763b25a88d9dffa3ceee90029",
  "source": "pragma solidity ^0.4.17;\n\n\n/// @title Multisignature wallet - Allows multiple parties to agree on transactions before execution.\n/// @author Stefan George - <stefan.george@consensys.net>\ncontract MultiSigWallet {\n\n    // flag to determine if address is for a real contract or not\n    bool public isMultiSigWallet = false;\n\n    uint constant public MAX_OWNER_COUNT = 50;\n\n    event Confirmation(address indexed sender, uint indexed transactionId);\n\n    event Revocation(address indexed sender, uint indexed transactionId);\n\n    event Submission(uint indexed transactionId);\n\n    event Execution(uint indexed transactionId);\n\n    event ExecutionFailure(uint indexed transactionId);\n\n    event Deposit(address indexed sender, uint value);\n\n    event OwnerAddition(address indexed owner);\n\n    event OwnerRemoval(address indexed owner);\n\n    event RequirementChange(uint required);\n\n    mapping (uint => Transaction) public transactions;\n\n    mapping (uint => mapping (address => bool)) public confirmations;\n\n    mapping (address => bool) public isOwner;\n\n    address[] public owners;\n\n    uint public required;\n\n    uint public transactionCount;\n\n    struct Transaction {\n    address destination;\n    uint value;\n    bytes data;\n    bool executed;\n    }\n\n    modifier onlyWallet() {\n        require(msg.sender == address(this));\n        _;\n    }\n\n    modifier ownerDoesNotExist(address owner) {\n        require(!isOwner[owner]);\n        _;\n    }\n\n    modifier ownerExists(address owner) {\n        require(isOwner[owner]);\n        _;\n    }\n\n    modifier transactionExists(uint transactionId) {\n        require(transactions[transactionId].destination != 0);\n        _;\n    }\n\n    modifier confirmed(uint transactionId, address owner) {\n        require(confirmations[transactionId][owner]);\n        _;\n    }\n\n    modifier notConfirmed(uint transactionId, address owner) {\n        require(!confirmations[transactionId][owner]);\n        _;\n    }\n\n    modifier notExecuted(uint transactionId) {\n        require(!transactions[transactionId].executed);\n        _;\n    }\n\n    modifier notNull(address _address) {\n        require(_address != 0);\n        _;\n    }\n\n    modifier validRequirement(uint ownerCount, uint _required) {\n        require(ownerCount <= MAX_OWNER_COUNT);\n        require(_required <= ownerCount);\n        require(_required != 0);\n        require(ownerCount != 0);\n        _;\n    }\n\n    /// @dev Fallback function allows to deposit ether.\n    function()\n    payable\n    {\n        if (msg.value > 0)\n        Deposit(msg.sender, msg.value);\n    }\n\n    /*\n     * Public functions\n     */\n    /// @dev Contract constructor sets initial owners and required number of confirmations.\n    /// @param _owners List of initial owners.\n    /// @param _required Number of required confirmations.\n    function MultiSigWallet(address[] _owners, uint _required)\n    public\n    validRequirement(_owners.length, _required)\n    {\n        for (uint i = 0; i < _owners.length; i++) {\n            require(isOwner[_owners[i]] || _owners[i] != 0);\n            isOwner[_owners[i]] = true;\n        }\n        isMultiSigWallet = true;\n        owners = _owners;\n        required = _required;\n    }\n\n    /// @dev Allows to add a new owner. Transaction has to be sent by wallet.\n    /// @param owner Address of new owner.\n    function addOwner(address owner)\n    public\n    onlyWallet\n    ownerDoesNotExist(owner)\n    notNull(owner)\n    validRequirement(owners.length + 1, required)\n    {\n        isOwner[owner] = true;\n        owners.push(owner);\n        OwnerAddition(owner);\n    }\n\n    /// @dev Allows to remove an owner. Transaction has to be sent by wallet.\n    /// @param owner Address of owner.\n    function removeOwner(address owner)\n    public\n    onlyWallet\n    ownerExists(owner)\n    {\n        isOwner[owner] = false;\n        for (uint i = 0; i < owners.length - 1; i++)\n        if (owners[i] == owner) {\n            owners[i] = owners[owners.length - 1];\n            break;\n        }\n        owners.length -= 1;\n        if (required > owners.length)\n        changeRequirement(owners.length);\n        OwnerRemoval(owner);\n    }\n\n    /// @dev Allows to replace an owner with a new owner. Transaction has to be sent by wallet.\n    /// @param owner Address of owner to be replaced.\n    /// @param newOwner Address of new owner.\n    /// @param index the indx of the owner to be replaced\n    function replaceOwnerIndexed(address owner, address newOwner, uint index)\n    public\n    onlyWallet\n    ownerExists(owner)\n    ownerDoesNotExist(newOwner)\n    {\n        require(owners[index] == owner);\n        owners[index] = newOwner;\n        isOwner[owner] = false;\n        isOwner[newOwner] = true;\n        OwnerRemoval(owner);\n        OwnerAddition(newOwner);\n    }\n\n\n    /// @dev Allows to change the number of required confirmations. Transaction has to be sent by wallet.\n    /// @param _required Number of required confirmations.\n    function changeRequirement(uint _required)\n    public\n    onlyWallet\n    validRequirement(owners.length, _required)\n    {\n        required = _required;\n        RequirementChange(_required);\n    }\n\n    /// @dev Allows an owner to submit and confirm a transaction.\n    /// @param destination Transaction target address.\n    /// @param value Transaction ether value.\n    /// @param data Transaction data payload.\n    /// @return Returns transaction ID.\n    function submitTransaction(address destination, uint value, bytes data)\n    public\n    returns (uint transactionId)\n    {\n        transactionId = addTransaction(destination, value, data);\n        confirmTransaction(transactionId);\n    }\n\n    /// @dev Allows an owner to confirm a transaction.\n    /// @param transactionId Transaction ID.\n    function confirmTransaction(uint transactionId)\n    public\n    ownerExists(msg.sender)\n    transactionExists(transactionId)\n    notConfirmed(transactionId, msg.sender)\n    {\n        confirmations[transactionId][msg.sender] = true;\n        Confirmation(msg.sender, transactionId);\n        executeTransaction(transactionId);\n    }\n\n    /// @dev Allows an owner to revoke a confirmation for a transaction.\n    /// @param transactionId Transaction ID.\n    function revokeConfirmation(uint transactionId)\n    public\n    ownerExists(msg.sender)\n    confirmed(transactionId, msg.sender)\n    notExecuted(transactionId)\n    {\n        confirmations[transactionId][msg.sender] = false;\n        Revocation(msg.sender, transactionId);\n    }\n\n    /// @dev Returns the confirmation status of a transaction.\n    /// @param transactionId Transaction ID.\n    /// @return Confirmation status.\n    function isConfirmed(uint transactionId)\n    public\n    constant\n    returns (bool)\n    {\n        uint count = 0;\n        for (uint i = 0; i < owners.length; i++) {\n            if (confirmations[transactionId][owners[i]])\n            count += 1;\n            if (count == required)\n            return true;\n        }\n    }\n\n    /*\n     * Internal functions\n     */\n\n    /// @dev Allows anyone to execute a confirmed transaction.\n    /// @param transactionId Transaction ID.\n    function executeTransaction(uint transactionId)\n    internal\n    notExecuted(transactionId)\n    {\n        if (isConfirmed(transactionId)) {\n            Transaction tx = transactions[transactionId];\n            tx.executed = true;\n            if (tx.destination.call.value(tx.value)(tx.data))\n            Execution(transactionId);\n            else {\n                ExecutionFailure(transactionId);\n                tx.executed = false;\n            }\n        }\n    }\n\n    /// @dev Adds a new transaction to the transaction mapping, if transaction does not exist yet.\n    /// @param destination Transaction target address.\n    /// @param value Transaction ether value.\n    /// @param data Transaction data payload.\n    /// @return Returns transaction ID.\n    function addTransaction(address destination, uint value, bytes data)\n    internal\n    notNull(destination)\n    returns (uint transactionId)\n    {\n        transactionId = transactionCount;\n        transactions[transactionId] = Transaction({\n        destination : destination,\n        value : value,\n        data : data,\n        executed : false\n        });\n        transactionCount += 1;\n        Submission(transactionId);\n    }\n\n    /*\n     * Web3 call functions\n     */\n    /// @dev Returns number of confirmations of a transaction.\n    /// @param transactionId Transaction ID.\n    /// @return Number of confirmations.\n    function getConfirmationCount(uint transactionId)\n    public\n    constant\n    returns (uint count)\n    {\n        for (uint i = 0; i < owners.length; i++)\n        if (confirmations[transactionId][owners[i]])\n        count += 1;\n    }\n\n    /// @dev Returns total number of transactions after filers are applied.\n    /// @param pending Include pending transactions.\n    /// @param executed Include executed transactions.\n    /// @return Total number of transactions after filters are applied.\n    function getTransactionCount(bool pending, bool executed)\n    public\n    constant\n    returns (uint count)\n    {\n        for (uint i = 0; i < transactionCount; i++)\n        if ((pending && !transactions[i].executed) ||\n        (executed && transactions[i].executed))\n        count += 1;\n    }\n\n    /// @dev Returns list of owners.\n    /// @return List of owner addresses.\n    function getOwners()\n    public\n    constant\n    returns (address[])\n    {\n        return owners;\n    }\n\n    /// @dev Returns array with owner addresses, which confirmed transaction.\n    /// @param transactionId Transaction ID.\n    /// @return Returns array of owner addresses.\n    function getConfirmations(uint transactionId)\n    public\n    constant\n    returns (address[] _confirmations)\n    {\n        address[] memory confirmationsTemp = new address[](owners.length);\n        uint count = 0;\n        uint i;\n        for (i = 0; i < owners.length; i++)\n        if (confirmations[transactionId][owners[i]]) {\n            confirmationsTemp[count] = owners[i];\n            count += 1;\n        }\n        _confirmations = new address[](count);\n        for (i = 0; i < count; i++)\n        _confirmations[i] = confirmationsTemp[i];\n    }\n\n    /// @dev Returns list of transaction IDs in defined range.\n    /// @param from Index start position of transaction array.\n    /// @param to Index end position of transaction array.\n    /// @param pending Include pending transactions.\n    /// @param executed Include executed transactions.\n    /// @return Returns array of transaction IDs.\n    function getTransactionIds(uint from, uint to, bool pending, bool executed)\n    public\n    constant\n    returns (uint[] _transactionIds)\n    {\n        uint[] memory transactionIdsTemp = new uint[](transactionCount);\n        uint count = 0;\n        uint i;\n        for (i = 0; i < transactionCount; i++)\n        if ((pending && !transactions[i].executed) ||\n        (executed && transactions[i].executed))\n        {\n            transactionIdsTemp[count] = i;\n            count += 1;\n        }\n        _transactionIds = new uint[](to - from);\n        for (i = from; i < to; i++)\n        _transactionIds[i - from] = transactionIdsTemp[i];\n    }\n}\n",
  "sourcePath": "/home/yosra/workspace/finaltoken_gitSync/contracts/MultiSigWallet.sol",
  "schemaVersion": "1.0.0",
  "updatedAt": "2017-10-27T12:33:45.182Z"
}