{
  "contractName": "PullPayment",
  "abi": [
    {
      "constant": true,
      "inputs": [],
      "name": "totalPayments",
      "outputs": [
        {
          "name": "",
          "type": "uint256"
        }
      ],
      "payable": false,
      "stateMutability": "view",
      "type": "function"
    },
    {
      "constant": false,
      "inputs": [],
      "name": "withdrawPayments",
      "outputs": [],
      "payable": false,
      "stateMutability": "nonpayable",
      "type": "function"
    },
    {
      "constant": true,
      "inputs": [
        {
          "name": "",
          "type": "address"
        }
      ],
      "name": "payments",
      "outputs": [
        {
          "name": "",
          "type": "uint256"
        }
      ],
      "payable": false,
      "stateMutability": "view",
      "type": "function"
    }
  ],
  "bytecode": "0x6060604052341561000f57600080fd5b6101cd8061001e6000396000f300606060405263ffffffff7c01000000000000000000000000000000000000000000000000000000006000350416625b448781146100515780636103d70b14610076578063e2982c211461008b57600080fd5b341561005c57600080fd5b6100646100b7565b60405190815260200160405180910390f35b341561008157600080fd5b6100896100bd565b005b341561009657600080fd5b61006473ffffffffffffffffffffffffffffffffffffffff6004351661017d565b60015481565b3373ffffffffffffffffffffffffffffffffffffffff81166000908152602081905260409020548015156100f057600080fd5b73ffffffffffffffffffffffffffffffffffffffff3016318190101561011557600080fd5b600154610128908263ffffffff61018f16565b60015573ffffffffffffffffffffffffffffffffffffffff82166000818152602081905260408082209190915582156108fc0290839051600060405180830381858888f19350505050151561017957fe5b5050565b60006020819052908152604090205481565b60008282111561019b57fe5b509003905600a165627a7a723058202d9c4a2e932009a7da8d57f3541c42fe2e61d5a4705c718460398317bc2330520029",
  "source": "pragma solidity ^0.4.17;\n\n\nimport \"./SafeMath.sol\";\n\n\n/**\n * @title PullPayment\n * @dev Base contract supporting async send for pull payments. Inherit from this\n * contract and use asyncSend instead of send.\n */\ncontract PullPayment {\n    using SafeMath for uint256;\n\n    mapping (address => uint256) public payments;\n\n    uint256 public totalPayments;\n\n    /**\n    * @dev Called by the payer to store the sent amount as credit to be pulled.\n    * @param dest The destination address of the funds.\n    * @param amount The amount to transfer.\n    */\n    function asyncSend(address dest, uint256 amount) internal {\n        payments[dest] = payments[dest].add(amount);\n        totalPayments = totalPayments.add(amount);\n    }\n\n    /**\n    * @dev withdraw accumulated balance, called by payee.\n    */\n    function withdrawPayments() {\n        address payee = msg.sender;\n        uint256 payment = payments[payee];\n\n        require(payment != 0);\n        require(this.balance >= payment);\n\n        totalPayments = totalPayments.sub(payment);\n        payments[payee] = 0;\n\n        assert(payee.send(payment));\n    }\n}\n",
  "sourcePath": "/home/yosra/workspace/finaltoken_gitSync/contracts/PullPayment.sol",
  "schemaVersion": "1.0.0",
  "updatedAt": "2017-10-27T12:33:45.185Z"
}