{
  "contractName": "ROKToken",
  "abi": [
    {
      "constant": true,
      "inputs": [],
      "name": "name",
      "outputs": [
        {
          "name": "",
          "type": "string"
        }
      ],
      "payable": false,
      "stateMutability": "view",
      "type": "function"
    },
    {
      "constant": false,
      "inputs": [
        {
          "name": "_spender",
          "type": "address"
        },
        {
          "name": "_value",
          "type": "uint256"
        }
      ],
      "name": "approve",
      "outputs": [
        {
          "name": "",
          "type": "bool"
        }
      ],
      "payable": false,
      "stateMutability": "nonpayable",
      "type": "function"
    },
    {
      "constant": true,
      "inputs": [],
      "name": "totalSupply",
      "outputs": [
        {
          "name": "",
          "type": "uint256"
        }
      ],
      "payable": false,
      "stateMutability": "view",
      "type": "function"
    },
    {
      "constant": false,
      "inputs": [
        {
          "name": "_spender",
          "type": "address"
        },
        {
          "name": "_value",
          "type": "uint256"
        }
      ],
      "name": "unlockTransfer",
      "outputs": [
        {
          "name": "",
          "type": "bool"
        }
      ],
      "payable": false,
      "stateMutability": "nonpayable",
      "type": "function"
    },
    {
      "constant": false,
      "inputs": [
        {
          "name": "_from",
          "type": "address"
        },
        {
          "name": "_to",
          "type": "address"
        },
        {
          "name": "_value",
          "type": "uint256"
        }
      ],
      "name": "transferFrom",
      "outputs": [
        {
          "name": "",
          "type": "bool"
        }
      ],
      "payable": false,
      "stateMutability": "nonpayable",
      "type": "function"
    },
    {
      "constant": true,
      "inputs": [],
      "name": "INITIAL_SUPPLY",
      "outputs": [
        {
          "name": "",
          "type": "uint256"
        }
      ],
      "payable": false,
      "stateMutability": "view",
      "type": "function"
    },
    {
      "constant": true,
      "inputs": [],
      "name": "decimals",
      "outputs": [
        {
          "name": "",
          "type": "uint8"
        }
      ],
      "payable": false,
      "stateMutability": "view",
      "type": "function"
    },
    {
      "constant": false,
      "inputs": [
        {
          "name": "_value",
          "type": "uint256"
        }
      ],
      "name": "burn",
      "outputs": [
        {
          "name": "success",
          "type": "bool"
        }
      ],
      "payable": false,
      "stateMutability": "nonpayable",
      "type": "function"
    },
    {
      "constant": false,
      "inputs": [
        {
          "name": "_spender",
          "type": "address"
        },
        {
          "name": "_subtractedValue",
          "type": "uint256"
        }
      ],
      "name": "decreaseApproval",
      "outputs": [
        {
          "name": "success",
          "type": "bool"
        }
      ],
      "payable": false,
      "stateMutability": "nonpayable",
      "type": "function"
    },
    {
      "constant": true,
      "inputs": [
        {
          "name": "_owner",
          "type": "address"
        }
      ],
      "name": "balanceOf",
      "outputs": [
        {
          "name": "balance",
          "type": "uint256"
        }
      ],
      "payable": false,
      "stateMutability": "view",
      "type": "function"
    },
    {
      "constant": true,
      "inputs": [],
      "name": "owner",
      "outputs": [
        {
          "name": "",
          "type": "address"
        }
      ],
      "payable": false,
      "stateMutability": "view",
      "type": "function"
    },
    {
      "constant": true,
      "inputs": [],
      "name": "symbol",
      "outputs": [
        {
          "name": "",
          "type": "string"
        }
      ],
      "payable": false,
      "stateMutability": "view",
      "type": "function"
    },
    {
      "constant": false,
      "inputs": [
        {
          "name": "_to",
          "type": "address"
        },
        {
          "name": "_value",
          "type": "uint256"
        }
      ],
      "name": "transfer",
      "outputs": [
        {
          "name": "",
          "type": "bool"
        }
      ],
      "payable": false,
      "stateMutability": "nonpayable",
      "type": "function"
    },
    {
      "constant": false,
      "inputs": [
        {
          "name": "_spender",
          "type": "address"
        },
        {
          "name": "_addedValue",
          "type": "uint256"
        }
      ],
      "name": "increaseApproval",
      "outputs": [
        {
          "name": "success",
          "type": "bool"
        }
      ],
      "payable": false,
      "stateMutability": "nonpayable",
      "type": "function"
    },
    {
      "constant": true,
      "inputs": [
        {
          "name": "_owner",
          "type": "address"
        },
        {
          "name": "_spender",
          "type": "address"
        }
      ],
      "name": "allowance",
      "outputs": [
        {
          "name": "remaining",
          "type": "uint256"
        }
      ],
      "payable": false,
      "stateMutability": "view",
      "type": "function"
    },
    {
      "constant": false,
      "inputs": [
        {
          "name": "newOwner",
          "type": "address"
        }
      ],
      "name": "transferOwnership",
      "outputs": [],
      "payable": false,
      "stateMutability": "nonpayable",
      "type": "function"
    },
    {
      "inputs": [],
      "payable": false,
      "stateMutability": "nonpayable",
      "type": "constructor"
    },
    {
      "anonymous": false,
      "inputs": [
        {
          "indexed": true,
          "name": "owner",
          "type": "address"
        },
        {
          "indexed": true,
          "name": "spender",
          "type": "address"
        },
        {
          "indexed": false,
          "name": "value",
          "type": "uint256"
        }
      ],
      "name": "Approval",
      "type": "event"
    },
    {
      "anonymous": false,
      "inputs": [
        {
          "indexed": true,
          "name": "from",
          "type": "address"
        },
        {
          "indexed": true,
          "name": "to",
          "type": "address"
        },
        {
          "indexed": false,
          "name": "value",
          "type": "uint256"
        }
      ],
      "name": "Transfer",
      "type": "event"
    },
    {
      "anonymous": false,
      "inputs": [
        {
          "indexed": true,
          "name": "from",
          "type": "address"
        },
        {
          "indexed": false,
          "name": "value",
          "type": "uint256"
        }
      ],
      "name": "Burn",
      "type": "event"
    }
  ],
  "bytecode": "0x6060604052341561000f57600080fd5b60018054600160a060020a033316600160a060020a031990911681179091556a52b7d2dcc80cd2e400000060008181559182526002602052604090912055610a648061005c6000396000f300606060405236156100e35763ffffffff7c010000000000000000000000000000000000000000000000000000000060003504166306fdde0381146100e8578063095ea7b31461017257806318160ddd146101a85780631ffb6ca6146101cd57806323b872dd146101ef5780632ff2e9dc14610217578063313ce5671461022a57806342966c6814610253578063661884631461026957806370a082311461028b5780638da5cb5b146102aa57806395d89b41146102d9578063a9059cbb146102ec578063d73dd6231461030e578063dd62ed3e14610330578063f2fde38b14610355575b600080fd5b34156100f357600080fd5b6100fb610376565b60405160208082528190810183818151815260200191508051906020019080838360005b8381101561013757808201518382015260200161011f565b50505050905090810190601f1680156101645780820380516001836020036101000a031916815260200191505b509250505060405180910390f35b341561017d57600080fd5b610194600160a060020a03600435166024356103ad565b604051901515815260200160405180910390f35b34156101b357600080fd5b6101bb610419565b60405190815260200160405180910390f35b34156101d857600080fd5b610194600160a060020a036004351660243561041f565b34156101fa57600080fd5b610194600160a060020a0360043581169060243516604435610427565b341561022257600080fd5b6101bb6105a9565b341561023557600080fd5b61023d6105b8565b60405160ff909116815260200160405180910390f35b341561025e57600080fd5b6101946004356105bd565b341561027457600080fd5b610194600160a060020a036004351660243561068c565b341561029657600080fd5b6101bb600160a060020a0360043516610786565b34156102b557600080fd5b6102bd6107a1565b604051600160a060020a03909116815260200160405180910390f35b34156102e457600080fd5b6100fb6107b0565b34156102f757600080fd5b610194600160a060020a03600435166024356107e7565b341561031957600080fd5b610194600160a060020a03600435166024356108e2565b341561033b57600080fd5b6101bb600160a060020a0360043581169060243516610986565b341561036057600080fd5b610374600160a060020a03600435166109b1565b005b60408051908101604052600981527f524f4b20546f6b656e0000000000000000000000000000000000000000000000602082015281565b600160a060020a03338116600081815260036020908152604080832094871680845294909152808220859055909291907f8c5be1e5ebec7d5bd14f71427d1e84f3dd0314c0f7b2291e5b200ac8c7c3b9259085905190815260200160405180910390a350600192915050565b60005481565b600092915050565b6000600160a060020a038316151561043e57600080fd5b600160a060020a03841660009081526002602052604090205482111561046357600080fd5b600160a060020a038085166000908152600360209081526040808320339094168352929052205482111561049657600080fd5b600160a060020a0384166000908152600260205260409020546104bf908363ffffffff610a1016565b600160a060020a0380861660009081526002602052604080822093909355908516815220546104f4908363ffffffff610a2216565b600160a060020a0380851660009081526002602090815260408083209490945587831682526003815283822033909316825291909152205461053c908363ffffffff610a1016565b600160a060020a03808616600081815260036020908152604080832033861684529091529081902093909355908516917fddf252ad1be2c89b69c2b068fc378daa952ba7f163c4a11628f55a4df523b3ef9085905190815260200160405180910390a35060019392505050565b6a52b7d2dcc80cd2e400000081565b601281565b6000808083116105cc57600080fd5b600160a060020a0333166000908152600260205260409020548311156105f157600080fd5b5033600160a060020a0381166000908152600260205260409020546106169084610a10565b600160a060020a03821660009081526002602052604081209190915554610643908463ffffffff610a1016565b600055600160a060020a0381167fcc16f5dbb4873280815c1ee09dbd06736cffcc184412cf7a71a0fdb75d397ca58460405190815260200160405180910390a250600192915050565b600160a060020a033381166000908152600360209081526040808320938616835292905290812054808311156106e957600160a060020a033381166000908152600360209081526040808320938816835292905290812055610720565b6106f9818463ffffffff610a1016565b600160a060020a033381166000908152600360209081526040808320938916835292905220555b600160a060020a0333811660008181526003602090815260408083209489168084529490915290819020547f8c5be1e5ebec7d5bd14f71427d1e84f3dd0314c0f7b2291e5b200ac8c7c3b925915190815260200160405180910390a35060019392505050565b600160a060020a031660009081526002602052604090205490565b600154600160a060020a031681565b60408051908101604052600381527f524f4b0000000000000000000000000000000000000000000000000000000000602082015281565b6000600160a060020a03831615156107fe57600080fd5b600160a060020a03331660009081526002602052604090205482111561082357600080fd5b600160a060020a03331660009081526002602052604090205461084c908363ffffffff610a1016565b600160a060020a033381166000908152600260205260408082209390935590851681522054610881908363ffffffff610a2216565b600160a060020a0380851660008181526002602052604090819020939093559133909116907fddf252ad1be2c89b69c2b068fc378daa952ba7f163c4a11628f55a4df523b3ef9085905190815260200160405180910390a350600192915050565b600160a060020a03338116600090815260036020908152604080832093861683529290529081205461091a908363ffffffff610a2216565b600160a060020a0333811660008181526003602090815260408083209489168084529490915290819020849055919290917f8c5be1e5ebec7d5bd14f71427d1e84f3dd0314c0f7b2291e5b200ac8c7c3b92591905190815260200160405180910390a350600192915050565b600160a060020a03918216600090815260036020908152604080832093909416825291909152205490565b60015433600160a060020a039081169116146109cc57600080fd5b600160a060020a03811615156109e157600080fd5b6001805473ffffffffffffffffffffffffffffffffffffffff1916600160a060020a0392909216919091179055565b600082821115610a1c57fe5b50900390565b600082820183811015610a3157fe5b93925050505600a165627a7a72305820ac2a385ad37a05a14ae2597664505985a932ff855197caeb18790d9c4b7f766e0029",
  "source": "pragma solidity ^0.4.17;\n\n\nimport './ERC20.sol';\nimport './Ownable.sol';\nimport './SafeMath.sol';\n\n\ncontract ROKToken is ERC20, Ownable {\n    using SafeMath for uint256;\n\n    string public constant name = \"ROK Token\";\n    string public constant symbol = \"ROK\";\n    uint8 public constant decimals = 18;\n    uint256 public constant INITIAL_SUPPLY = 100000000000000000000000000;\n\n    mapping(address => uint256) balances;\n    mapping (address => mapping (address => uint256)) internal allowed;\n\n    /**\n  * @dev Contructor that gives msg.sender all of existing tokens.\n  */\n    function ROKToken() {\n        totalSupply = INITIAL_SUPPLY;\n        balances[msg.sender] = INITIAL_SUPPLY;\n    }\n\n\n    /**\n    * @dev transfer token for a specified address\n    * @param _to The address to transfer to.\n    * @param _value The amount to be transferred.\n    */\n    function transfer(address _to, uint256 _value) public returns (bool) {\n        require(_to != address(0));\n        require(_value <= balances[msg.sender]);\n\n        // SafeMath.sub will throw if there is not enough balance.\n        balances[msg.sender] = balances[msg.sender].sub(_value);\n        balances[_to] = balances[_to].add(_value);\n        Transfer(msg.sender, _to, _value);\n        return true;\n    }\n\n    /**\n    * @dev Gets the balance of the specified address.\n    * @param _owner The address to query the the balance of.\n    * @return An uint256 representing the amount owned by the passed address.\n    */\n    function balanceOf(address _owner) public constant returns (uint256 balance) {\n        return balances[_owner];\n    }\n    /**\n     * @dev Transfer tokens from one address to another\n     * @param _from address The address which you want to send tokens from\n     * @param _to address The address which you want to transfer to\n     * @param _value uint256 the amount of tokens to be transferred\n     */\n    function transferFrom(address _from, address _to, uint256 _value) public returns (bool) {\n        require(_to != address(0));\n        require(_value <= balances[_from]);\n        require(_value <= allowed[_from][msg.sender]);\n\n        balances[_from] = balances[_from].sub(_value);\n        balances[_to] = balances[_to].add(_value);\n        allowed[_from][msg.sender] = allowed[_from][msg.sender].sub(_value);\n        Transfer(_from, _to, _value);\n        return true;\n    }\n\n    /**\n     * @dev Approve the passed address to spend the specified amount of tokens on behalf of msg.sender.\n     *\n     * Beware that changing an allowance with this method brings the risk that someone may use both the old\n     * and the new allowance by unfortunate transaction ordering. One possible solution to mitigate this\n     * race condition is to first reduce the spender's allowance to 0 and set the desired value afterwards:\n     * https://github.com/ethereum/EIPs/issues/20#issuecomment-263524729\n     * @param _spender The address which will spend the funds.\n     * @param _value The amount of tokens to be spent.\n     */\n    function approve(address _spender, uint256 _value) public returns (bool) {\n        allowed[msg.sender][_spender] = _value;\n        Approval(msg.sender, _spender, _value);\n        return true;\n    }\n\n    function unlockTransfer(address _spender, uint256 _value) public returns (bool) {\n\n    }\n\n    /**\n     * @dev Function to check the amount of tokens that an owner allowed to a spender.\n     * @param _owner address The address which owns the funds.\n     * @param _spender address The address which will spend the funds.\n     * @return A uint256 specifying the amount of tokens still available for the spender.\n     */\n    function allowance(address _owner, address _spender) public constant returns (uint256 remaining) {\n        return allowed[_owner][_spender];\n    }\n\n    /**\n     * approve should be called when allowed[_spender] == 0. To increment\n     * allowed value is better to use this function to avoid 2 calls (and wait until\n     * the first transaction is mined)\n     * From MonolithDAO Token.sol\n     */\n    function increaseApproval (address _spender, uint _addedValue) public returns (bool success) {\n        allowed[msg.sender][_spender] = allowed[msg.sender][_spender].add(_addedValue);\n        Approval(msg.sender, _spender, allowed[msg.sender][_spender]);\n        return true;\n    }\n\n    function decreaseApproval (address _spender, uint _subtractedValue) public returns (bool success) {\n        uint oldValue = allowed[msg.sender][_spender];\n        if (_subtractedValue > oldValue) {\n            allowed[msg.sender][_spender] = 0;\n        } else {\n            allowed[msg.sender][_spender] = oldValue.sub(_subtractedValue);\n        }\n        Approval(msg.sender, _spender, allowed[msg.sender][_spender]);\n        return true;\n    }\n\n    function burn(uint256 _value) public returns (bool success){\n        require(_value > 0);\n        require(_value <= balances[msg.sender]);\n        // no need to require value <= totalSupply, since that would imply the\n        // sender's balance is greater than the totalSupply, which *should* be an assertion failure\n\n        address burner = msg.sender;\n        balances[burner] = balances[burner].sub(_value);\n        totalSupply = totalSupply.sub(_value);\n        Burn(burner, _value);\n        return true;\n    }\n}\n",
  "sourcePath": "/home/yosra/workspace/finaltoken_gitSync/contracts/ROKToken.sol",
  "schemaVersion": "1.0.0",
  "updatedAt": "2017-10-27T12:33:45.185Z"
}